:020000040800F2
:10000000B85A0020F1020008CF0900087108000862
:10001000CD090008AD0700084D0F000800000000E2
:10002000000000000000000000000000390200088D
:10003000C5070008000000008D020008F10B000851
:100040000B0300080B0300080B0300080B03000858
:100050000B0300080B0300080B0300080B03000848
:100060000B0300080B0300080B0300080B03000838
:100070000B0300080B0300080B0300080B03000828
:100080000B0300080B0300080B0300080B03000818
:100090000B0300080B0300080B0300080B03000808
:1000A0000B0300080B0300080B0300080B030008F8
:1000B0000B030008610C00080B0300080B03000889
:1000C0000B0300080B0300080B0300080B030008D8
:1000D0000B030008B10D00080B0300080B03000818
:1000E0000B0300080B0300080B0300080B030008B8
:1000F0000B0300080B0300080B0300080B030008A8
:100100000B0300080B0300080B0300080B03000897
:100110000B0300080B0300080B0300080B03000887
:100120000B0300080B0300080B0300080B03000877
:100130000B0300080B0300080B0300080B03000867
:100140000B0300080B0300080B0300080B03000857
:100150000B0300080B0300080B0300080B03000847
:100160000B0300080B0300080B0300080B03000837
:100170000B0300080B0300080B0300080B03000827
:100180000B0300080B03000800F002F800F044F82D
:100190000AA090E8000C82448344AAF10107DA45E2
:1001A00001D100F039F8AFF2090EBAE80F0013F0F0
:1001B000010F18BFFB1A43F001031847302D000050
:1001C000502D0000103A24BF78C878C1FAD85207E1
:1001D00024BF30C830C144BF04680C6070470000C1
:1001E0000023002400250026103A28BF78C1FBD840
:1001F000520728BF30C148BF0B607047642900F028
:100200000381732900F00E82002070471FB502F0B1
:1002100067FE1FBD10B510BD00F099FA1146FFF73B
:10022000F5FF00F033FF00F0B7FA03B4FFF7F2FF79
:1002300003BC00F08CFE00002A4B19680868B0E887
:10024000F04F80F30988BFF36F8F4FF0000080F309
:10025000118870470000000006480068006880F3BD
:10026000088862B661B6BFF34F8FBFF36F8F00DFB0
:1002700000BF00BF08ED00E0DFF80C00016841F4AA
:1002800070010160704700BF88ED00E0EFF3098066
:10029000BFF36F8F134B1A681EF0100F08BF20EDCD
:1002A000108A20E9F04F106008B44FF0500080F33E
:1002B0001188BFF34F8FBFF36F8F01F0D1FF4FF065
:1002C000000080F3118808BC19680868B0E8F04F96
:1002D0001EF0100F08BFB0EC108A80F30988BFF33E
:1002E0006F8F704754000020EFF3058070470000C7
:1002F0000948804709480047FEE7FEE7FEE7FEE7BA
:10030000FEE7FEE7FEE7FEE7FEE7FEE704480549F5
:10031000054A064B70470000050C000889010008DB
:10032000B8540020B85A0020B8560020B856002013
:10033000704700000FB4044910B503AA029800F0FA
:1003400075F910BC5DF814FB400000202DE9F04168
:100350000E460446002020622046E168884730B3FC
:10036000252805D0D4E901219047206A401CF2E7F6
:10037000E168204600278847050018D0A5F1410014
:10038000192802D820354FF4006732462946204606
:100390002760FFF733FF40B1012804D0F61D26F097
:1003A00007060836D8E7361DD6E72846DAE7206A7A
:1003B000BDE8F08170B50C460546012A05D02878C5
:1003C000800600D5EA69002302E0012305E05B1CFA
:1003D000934202D2E05C0028F9D1A869E618C01A5D
:1003E000A861286A184428622846AFF3008004E018
:1003F000D5E9012114F8010B9047B442F8D32846FF
:10040000AFF3008070BD00002DE9F04106460024E6
:1004100010687529314615A510D0AFF3008000286B
:1004200002DA404212A507E031688A0701D511A51A
:1004300002E0490704D510A5012401E0AFF30080D4
:1004400000210A2306F1240707E0B0FBF3F203FBC7
:100450001200303078541046491C0028F5D123464C
:100460002A463046BDE8F04100F059B800000000CF
:100470002D0000002B00000020000000032A40F2A5
:10048000308010F0030C00F0158011F8013BBCF136
:10049000020F624498BF11F801CB00F8013B38BF4E
:1004A00011F8013BA2F1040298BF00F801CB38BF5C
:1004B00000F8013B11F0030300F0CA80083AC0F0D5
:1004C000088051F8043B083A51F804CBA0E8081022
:1004D000F5E7121D5CBF51F8043B40F8043BAFF355
:1004E0000080D20724BF11F8013B11F801CB48BFAF
:1004F00011F8012B24BF00F8013B00F801CB48BFE5
:1005000000F8012B704702F0FF0343EA032242EA9E
:10051000024200F0D1B870477047704770472DE92C
:10052000F0470D4699469246044600F124080168BA
:10053000880604D5E06921F01001216000E0012067
:10054000A84201DD471B00E00027A1697A1902EBF0
:100550000900081AA0612078C00602D42046AFF333
:100560000080002608E0D4E901211AF8060090472F
:10057000206A401C761C20624E45F4DB2078C006C1
:100580000AD52046AFF3008006E0D4E901213020EF
:100590009047206A401C2062381EA7F10107F4DC56
:1005A00007E0D4E9012118F805009047206A401CB3
:1005B0002062281EA5F10105F3DC2046AFF3008080
:1005C0002078000602D50220BDE8F0870120FBE775
:1005D00001694A1C02610878704700B58FB0CDE907
:1005E00001310021059105497944CDE903101146F7
:1005F0006846FFF7ABFE0FB000BD0000E5FFFFFF50
:1006000010B5436913B1AFF3008001E0FFF7D2FEEC
:10061000012010BD127800F124010A7000224A70F6
:100620000122EDE711684FF0FF32E9E7074B70B5A3
:100630000D467B44FFF7D1FF0446284600F05CF8E6
:1006400010B14FF0FF3070BD204670BDBF090000F3
:1006500010B5203AC0F00B80B1E81850203AA0E85D
:100660001850B1E81850A0E81850BFF4F5AF5FEA91
:10067000027C24BFB1E81850A0E8185044BF18C944
:1006800018C0BDE810405FEA827C24BF51F8043BEB
:1006900040F8043B08BF7047D20728BF31F8023B3F
:1006A00048BF11F8012B28BF20F8023B48BF00F8D3
:1006B000012B70474FF000020429C0F0128010F0A7
:1006C000030C00F01F80CCF1040CBCF1020F18BF2A
:1006D00000F8012BA8BF20F8022BA1EB0C0100F0C1
:1006E00011B85FEAC17C24BF00F8012B00F8012B90
:1006F00048BF00F8012B7047007B00F08000704776
:100700004FF0000200B5134694469646203922BFAA
:10071000A0E80C50A0E80C50B1F12001BFF4F7AFF5
:10072000090728BFA0E80C5048BF0CC05DF804EBD7
:10073000890028BF40F8042B08BF704748BF20F845
:10074000022B11F0804F18BF00F8012B704775463F
:1007500000F028F8AE4605006946534620F0070031
:10076000854618B020B5FFF7D1FDBDE820404FF019
:1007700000064FF000074FF000084FF0000B21F08B
:100780000701AC46ACE8C009ACE8C009ACE8C00958
:10079000ACE8C0098D4670470446AFF300802046A0
:1007A000FFF743FD0048704754540020FEE7000067
:1007B00003480022026042605321312000F06ABAEF
:1007C000300000207047F0B5002201274FF0030CE5
:1007D0000B6807FA02F52B40AB422CD10668530098
:1007E0000CFA03F4A64306600E79D0F800E09E40B0
:1007F00046EA0E0606600E79012E01D0022E12D1B5
:100800008668A64386604E79D0F808E09E4046EAA6
:100810000E0686604668AE43466045688E7996400F
:10082000B6B235434560C568A543C560CC799C40E8
:10083000C3681C43C460521C102AC9D3F0BD4B07C7
:10084000DB0E9A40C90810B500EB8100016A0F2445
:100850009C40A1430162016A1143016210BD02463E
:10086000002012690A4200D00120704701837047BE
:10087000FEE700001CB50121112000F0E7F8102070
:10088000009000208DF8040003208DF8050002245C
:100890008DF8074069460648FFF795FF0120009054
:1008A0008DF8074069460348FFF78DFF1CBD000027
:1008B00000100240000002402DE9F0411B4C1C4E8C
:1008C0001C4F012508B1257001E0207858B1102196
:1008D0003046FFF7C4FF01280BD001213846FFF74F
:1008E000BEFF012805D010213046FFF7B8FFA0B1A8
:1008F00019E00A2000F048FB00202070102130464B
:10090000FFF7ADFF012806D001213846FFF7A7FF0A
:10091000012808D10420BDE8F08101213846FFF705
:100920009EFF00B925700020F5E700002800002098
:10093000001002400000024010B5012100220846CC
:1009400001F07CFD0449086020B104A0BDE810401E
:10095000FFF7F0BC07A0F9E700000020B0B4BCFC32
:10096000CFFBCFA2B6D3C1D0B4B4BDA8B3C9B9A68A
:1009700000000000B0B4BCFCCFFBCFA2B6D3C1D006
:10098000B4B4BDA8CAA7B0DC000000007CB501214A
:10099000202000F05BF801208DF8040000228DF883
:1009A000062003218DF80510074D4FF4C0648DF823
:1009B0000700009469462846FFF705FF21462846B0
:1009C000FFF754FF7CBD000000140240FEE77047B3
:1009D00030B50F23C27801780125FAB1144A1268A4
:1009E00001F1E02102F4E062C2F5E062C2F3072205
:1009F000C2F10404D3404278A24084781C401443DE
:100A0000220181F80024007800F01F018D40400988
:100A1000800000F1E020C0F8005130BD01F01F005F
:100A200085404809800000F1E020C0F8805130BDC9
:100A30000CED00E0024908430249086070470000DD
:100A40000000FA050CED00E0FFF776BF044A00292C
:100A5000116801D0014300E081431160704700003C
:100A600030380240044A0029116801D0014300E0F7
:100A7000814311607047000040380240044A002959
:100A8000116801D0014300E081431160704700000C
:100A90004438024070B5204B1968204C11F00C010D
:100AA00004D06610042903D0082903D004601BE099
:100AB000066019E0184A121F1168C1F380551168C9
:100AC00001F03F0115B1B6FBF1F101E0B4FBF1F12A
:100AD00014681268C4F388146143C2F30142521CC3
:100AE0005200B1FBF2F1016019680F2202EA111104
:100AF0000B4A545C0168E14041601C68072505EA27
:100B00009424145D21FA04F484601B6805EA5333CD
:100B1000D25CD140C16070BD083802400024F400AE
:100B2000440000200CB50022274900920192086879
:100B300040F4803008604FF4A043086800F40030AF
:100B400001900098401C0090019810B900989842BC
:100B5000F3D10868800334D5012001901A48403051
:100B6000026842F0805202601848026842F4404233
:100B700002601548083002680260026842F40042D0
:100B80000260026842F4A0520260031F104A1A6019
:100B90000A6842F080720A600A689201FCD50D4929
:100BA00040F205720A60016821F0030101600168EA
:100BB00041F0020101600168C1F381010229FAD10B
:100BC0000CBD01920CBD00000038024000700040D6
:100BD00008544007003C02404FF0E0210428086917
:100BE00003D020F004000861704740F00400FAE7E9
:100BF00010B501F019FF012803D0BDE8104001F045
:100C000007BC10BD124810B5016841F470010160C5
:100C10001048016841F0010101600E4A00210832CC
:100C2000116002680C4B1A400260031D0B4A1A60E7
:100C3000026822F48022026006480C300160FFF74F
:100C400071FF03494FF000608039086010BD00005B
:100C500088ED00E000380240FFFFF6FE103000246F
:100C600010B50A4C0121204600F04FF8012807D1A9
:100C700007490A684868521C40F100000A60486051
:100C80002046BDE81040012100F032B800040040C9
:100C9000300000207FB50D46044601210220FFF7F9
:100CA000E1FE0194ADF800500024104DADF8024073
:100CB000ADF808406946284600F03CF8012211468C
:100CC000284600F02EF80121284600F014F81D20D7
:100CD0008DF80C0001208DF80D008DF80E408DF878
:100CE0000F0003A8FFF774FE7FBD00000004004062
:100CF000C943018270470029018802D041F00101F7
:100D000001E021F001010180704702460020138AB2
:100D100092890B4202EA010202D0002A00D001208F
:100D20007047002A828901D00A4300E08A43828109
:100D30007047000030B50288164C174DA0420DD008
:100D4000A8420BD0B0F1804F08D0144B984205D088
:100D5000134B984202D0134B984203D122F07003F8
:100D60004A881A43104B984206D0104B984203D041
:100D700022F440730A891A4302804A68C2620A88D0
:100D80000285A04201D0A84201D1897A01860121C1
:100D9000818230BD00000140000401400004004099
:100DA00000080040000C004000100040001400400B
:100DB00070B5154C40F22551204600F035F800285A
:100DC0000ED0204600F0BEF8104AC1B210880304CD
:100DD00006D444044FF0000306D50A2901D013803D
:100DE00070BD40F400400DE00D2909D0C0F30D04A2
:100DF000074D401C80B2295510803128EFD870BDB6
:100E000040F48040108070BD001001403C00002084
:100E1000D40000200029818902D041F4005101E072
:100E200021F400518181704770B501F01F05012642
:100E30000024C1F3421306FA05F2012B0FD0022B56
:100E40000FD0838A4FEA11210088134206FA01F677
:100E500000EA060001D000B10124204670BD83895C
:100E6000F0E7038AEEE710B5C1F3421301F01F0467
:100E70000121A140012B07D0022B07D01430002AFA
:100E8000026805D00A4304E00C30F8E71030F6E7BA
:100E90008A43026010BD00007FB50446008A0D46FB
:100EA000C98820F4405001432182A08941F20C619D
:100EB0008843A9882A8911436A8902431143A18181
:100EC000A08A20F44071A8890843A0826846FFF7F1
:100ED000E1FD1A48844202D01948844201D10398A6
:100EE00000E00298A189090400EBC00101EB0010A9
:100EF000296801D5490000E08900B0FBF1F06422C7
:100F0000B0FBF2F109010B096FF018056B4300EB20
:100F10008300A3891D044FF0320306D503EBC00004
:100F2000B0FBF2F000F0070005E003EB0010B0FBAF
:100F3000F2F000F00F00084320817FBD0010014057
:100F4000001401408088C0F308007047FEE7704736
:100F500010B504460420FFF73FFE0A484FF47A71AB
:100F6000047014FB01F1012242804FF0E02002697D
:100F700042F0020202614161016941F00101016137
:100F800010BD00003800002070B5044601F04CFD93
:100F900001280CD0094D6888844203D3B4FBF0F0DB
:100FA00000F0AAFF6888B4FBF0F100FB11444FF495
:100FB0007A706043BDE8704000F002B8380000204D
:100FC00070B54FF0E02500216C69094AAB691278D1
:100FD0005043AA699A42FCD002D2A3EB020302E07A
:100FE000A4EB02063344194413468142F1D370BD89
:100FF0003800002003490A885206FCD5C2B28A8014
:10100000704700000010014008B500240D4E8DF817
:10101000004001250020FFF74FFC01280DD19DF86D
:10102000000010B18DF8004001E08DF8005002235F
:1010300000226946306801F053FB0A2000F05CFF93
:10104000E8E70000000000200D4D0E4E0E4C4FF45E
:10105000FA77D4F8A802C043C4F8A80201230A22F0
:101060000749306801F026FA2878012804D1D4F81D
:10107000A402C043C4F8A402384600F03DFFE8E7EC
:10108000D000002000000020008042421CB54FF438
:101090004070FFF7CFFCA820FFF75AFF4FF4E13074
:1010A00000F04AFDFFF772FCFFF7E4FB064904205D
:1010B000CDE900018201002304A1074801F088FC6A
:1010C00001F07AF800201CBD0400002073746172E6
:1010D000745F7461736B0000A51A00082DE9F0417C
:1010E000184E0F460446F5683068001D00F07AFD82
:1010F00038B9306890F82C1001208840316981435C
:101100003161601C07D137B13168BDE8F0410E484C
:10111000091D00F09FBD30682C44AC42446031682A
:1011200005D2306CBDE8F041091D00F07BBDF06BCD
:10113000091D00F077FDB06A844200D2B462BDE8B8
:10114000F081000054000020180400202DE9F04137
:10115000054600F08BFD2D4EB068401CB060306835
:101160002B4F10B1706930B32BE03560B0680128A7
:1011700027D1002404EB840007EB800000F044FD3D
:10118000641C202CF6D3234800F03EFD2148143087
:1011900000F03AFD1F48283000F036FD1D483C3075
:1011A00000F032FD1B48503000F02EFD1948F0636E
:1011B0001430306405E03068E96AC06A884200D8BB
:1011C0003560706A0121401C7062A864E86A326967
:1011D00081401143316100EB800007EB8000291D45
:1011E00000F038FD00F07EFD706900280CD03068FA
:1011F000E96AC06A884207D207494FF08050086008
:10120000BFF34F8FBFF36F8FBDE8F0815400002014
:1012100048010020C803002004ED00E010B500F0F4
:1012200025FD0E4C2068A0B90D4800F0EDFC0C48DF
:10123000143000F0E9FC0A48E0601430206100221C
:101240001021052001F0FAF8206010B105A100F08E
:101250001FFEBDE8104000F045BD000098000020D2
:101260002C040020546D72510000000070B5124E25
:10127000124D1CE000F0ECFF306820B1002401F0BA
:1012800001FDA4B901E00124F9E700F0EFFCF068EA
:10129000C468201D00F0A6FCA868401EA86068680D
:1012A000401E686000F01EFD204600F052F868689D
:1012B0000028DFD170BD000004040020540000208D
:1012C00030B4026C0B46002A0BD0C1681144C160D7
:1012D0004468A14201D30168C16030BC1846FFF7E1
:1012E000CDB830BC70472DE9F041856B17460446F8
:1012F0000026026C82B1C7B1E068FFF7BFF8E16871
:10130000206C091AE1602268914202D26168081AD1
:10131000E060022F16D017E02068A8B9606801F0DD
:101320000BFC0646002060600EE0A068FFF7A6F800
:10133000216CA0680844A0606168884204D32068DA
:10134000A06001E005B16D1E6D1CA5633046BDE8CF
:10135000F08110B50446006B00F0F6FC2046BDE8B5
:10136000104000F0F1BC000010484FF4A0414207CB
:1013700006D0C01D0D4920F00700411AC1F5A0415B
:101380000B4A00230144C2E900030839103A21F056
:10139000070111604B600B600B1AC0E900139360EA
:1013A0004FF000405360D0607047000054040020AC
:1013B000C8000020074E4FF08054074DFFF756FF3E
:1013C00030680128FAD92C60BFF34F8FBFF36F8FBD
:1013D000F4E700004801002004ED00E02DE9F047AB
:1013E000DDE909840E461746824691009946089D1C
:1013F000A522206BFFF787F86FF00301206B01EB4C
:101400008701084420F00707780705D040F22B3207
:1014100019A11EA0FEF78EFF00202218315C82F871
:101420003410315C11B1401C1428F6D3002684F826
:101430004760202D00D31F25E562C4E91456201D06
:1014400000F0EDFB04F1180000F0E9FB2461C5F1A8
:1014500020006462A061A665E66584F860604A4683
:101460005146384600F002FB2060B8F1000F01D071
:10147000C8F80040BDE8F0872E2E5C4672656552C4
:10148000544F535C7461736B732E63004572726FBB
:10149000723A25732C25640D0A00000030B51149FD
:1014A00000E011460A688242FBD34B685C18844214
:1014B00003D1406818444860084643681C189442A9
:1014C00009D1084C103C2468A24209D052681A4441
:1014D00042600A6812680260814200D0086030BD34
:1014E0000460F9E7C800002070B5002441600B4D8E
:1014F0000061914206D8D11A8269914206D2011D3B
:10150000286907E09A4203D2994201D3012403E0FB
:10151000011DE86800F086FB204670BD98000020A1
:1015200010B5044600F0A2FBA06B20B1002400F02F
:10153000D9FB204610BD0124F9E700002DE9F34155
:1015400000980F460026846C2CB940F6CE1216A1E6
:101550001AA0FEF7EFFEA06BE16B884205D340F6C0
:10156000CF1211A115A0FEF7E5FEA06BE16B88423A
:101570000CD294F945503A4669462046FFF7B3FE2F
:101580000646681C05D06D1C84F845503046BDE801
:10159000FC81606A0028F9D004F1240001F026FBE8
:1015A0000028F3D00126F1E72E2E5C4672656552C5
:1015B000544F535C71756575652E63004572726F8B
:1015C000723A25732C25640D0A000000F8B5054613
:1015D00014480E46C068C068C468201D00F002FBB5
:1015E000E069012817D1A0692B46411932462046EF
:1015F000FFF77AFF78B100200346014600902A46A3
:10160000204601F025FC30B907494FF4027201F180
:101610001800FEF78FFE616A01B02046BDE8F04079
:101620000847000098000020B42D000870B586B06F
:101630002F4E53E00198002806DADDE90301029AF3
:1016400090470198002849DB039C606910B1201D78
:1016500000F0C8FA05A800F0A7F8054601980A2886
:101660003CD2DFE800F00505053B273805053B27A0
:101670000298A169034601442A462046FFF734FF39
:1016800000282BD0616A20468847E069012825D1CF
:10169000002000900298A1690023421819462046B4
:1016A00001F0D6FBD0B940F2213212A117A0FEF70B
:1016B00041FE13E00298A06128B94FF44E720DA1CB
:1016C00012A0FEF737FEA0692B4641191A462046A4
:1016D000FFF70AFF02E0204600F036FB00231A461F
:1016E00001A9306800F0E6FE0028A3D106B070BD65
:1016F000980000202E2E5C4672656552544F535C54
:1017000074696D6572732E63000000004572726F1C
:10171000723A25732C25640D0A000000F8B50D46B9
:10172000064600F095FD684600F03EF80446009835
:1017300010B101F0A7FAF8BD1148ADB1016909680F
:10174000D9B10025311B2A46006800F0B3FB01F037
:1017500099FA0028EFD10B494FF080500860BFF391
:101760004F8FBFF36F8FF8BDA642EBD801F08AFA16
:1017700021463046FFF72AFFF8BD0125E2E70000C9
:101780009800002004ED00E00648C16B096829B10B
:10179000C16BC968C9684968816270474FF0FF3101
:1017A000FAE700005400002070B5054601F04AF940
:1017B000064E0446B068844203D200F009F80120C6
:1017C00000E0002028602046B46070BD9800002032
:1017D000F8B5184E26E0C068C4680568201D00F002
:1017E00001FA616A20468847E06901281AD1A06998
:1017F0002844A84206D924616060211DF06800F0E9
:1018000011FA0FE000200346014600902A462046C8
:1018100001F01EFB30B9084940F2923201F1180084
:10182000FEF788FDF06801680029D4D13169C6E966
:101830000310F8BD98000020B42D00080848406847
:10184000401C05D040F20F1206A111A0FEF772FD58
:10185000502080F31188BFF34F8FBFF36F8FFEE7E7
:10186000AC0000202E2E5C4672656552544F535CCE
:10187000706F727461626C655C525644535C415285
:101880004D5F434D34465C706F72742E63000000F0
:101890004572726F723A25732C25640D0A000000A0
:1018A000084CE068016839B1002139B10020FFF728
:1018B00035FFFFF7BBFEF4E70121F6E7C0680068DB
:1018C000F5E70000980000202DE9F041044600F003
:1018D000CDF994F9455004F1240610E0A06C20B134
:1018E00000212046FFF72AFE04E0606A48B1304636
:1018F00001F07CF908B100F09BFB6D1E6DB2002D6C
:10190000ECDC4FF0FF3684F8456000F0EBF900F0B6
:10191000ADF994F9445004F1100709E0206948B189
:10192000384601F063F908B100F082FB6D1E6DB21C
:10193000002DF3DC84F84460BDE8F04100F0D2B93A
:101940002DE9F0410546002600F082FC324F386850
:1019500008B9FFF709FDF86805424FD1002D4DD0B9
:10196000083568070BD005F00700C0F108000544F2
:10197000680704D0BF2229A132A0FEF7DBFC002DAE
:101980003CD07868854239D823491031084604682C
:1019900001E0214604466068A84202D2206800287F
:1019A000F7D13868B846844228D00E6820680860AD
:1019B00060680836401B10280ED96719780704D0D4
:1019C000EC2216A11FA0FEF7B5FC6068401B7860F2
:1019D00038466560FFF762FD6168D8F8040042464A
:1019E000401AC8F80400D8F80830984200D2906035
:1019F000D8F80C0001430020C4E9000101F042F9CD
:101A0000700705D04FF4967204A10EA0FEF792FC69
:101A10003046BDE8F0810000B80000202E2E5C4664
:101A200072656552544F535C706F727461626C657D
:101A30005C4D656D4D616E675C686561705F342EED
:101A4000630000004572726F723A25732C25640D95
:101A50000A0000000449086818B10868426D521C69
:101A600042650868704700005400002010B5031F4D
:101A70004FF080741C601B1F21F001011960191FB9
:101A8000044B0B6014390A60091F6FF002024438DE
:101A90000A6010BD3D1800084FF47A74204600F02B
:101AA0002BFAFBE71CB500F0E1F8FEF7CDFF154976
:101AB0000020CDE900010346802213A1154800F063
:101AC00087FF10490220091DCDE900010023802273
:101AD00011A1144800F07CFF0A4903200831CDE928
:101AE000000100234FF400720FA1124800F070FFB4
:101AF0000448001F006800F035FABDE81C4000F003
:101B0000F1B80000080000207461736B315F7461EC
:101B1000736B0000491000086B65795F7461736B2B
:101B20000000000009100008736572766F5F746131
:101B3000736B0000991A0008F0B50746012187B0C1
:101B40000846FEF783FF01211020FEF797FF234E82
:101B5000072209213046FEF772FE07220A2130468D
:101B6000FEF76DFE4FF4C060049002208DF8140063
:101B70008DF8150000248DF8164001258DF81750BA
:101B800004A93046FEF71FFEADF808400C20144EA5
:101B9000ADF80440ADF80A000097ADF80640ADF886
:101BA0000C4069463046FFF777F901213046FFF7D0
:101BB00031F9012240F225513046FFF754F9252032
:101BC0008DF8180007208DF819008DF81A408DF84F
:101BD0001B5006A8FEF7FCFE07B0F0BD0000024057
:101BE00000100140D0E9013201699A60D0E9012377
:101BF0005A604A68824201D182684A6000220261CA
:101C00000868401E0860704700F108014FF0FF327D
:101C1000C0E90112C160016100210160704700212B
:101C20000161704730B50C68621C02D000F10802F7
:101C300002E0026904E01A4653681D68A542FAD919
:101C400053684B6099608A60516008610168491C63
:101C5000016030BD42684A6093688B609368596048
:101C6000916008610168491C01607047502080F351
:101C70001188BFF34F8FBFF36F8F09494868401C2D
:101C8000486001280AD10748006810F0FF0F05D00E
:101C900040F2B91204A10FA0FEF74CBB7047000040
:101CA000AC00002004ED00E02E2E5C46726565520B
:101CB000544F535C706F727461626C655C52564431
:101CC000535C41524D5F434D34465C706F72742ECD
:101CD000630000004572726F723A25732C25640D03
:101CE0000A00000010B5084C606828B94FF4E07293
:101CF00006A111A0FEF71EFB6068401E606001D1C6
:101D000080F3118810BD0000AC0000202E2E5C4630
:101D100072656552544F535C706F727461626C658A
:101D20005C525644535C41524D5F434D34465C70A7
:101D30006F72742E630000004572726F723A2573E1
:101D40002C25640D0A00000070B500282AD0164D1D
:101D5000A0F108046068E968084205D14FF4A07258
:101D600012A11CA0FEF7E6FA206828B140F2411249
:101D70000EA118A0FEF7DEFA6068E968084211D0EB
:101D80002268002A0ED18843606000F061FA606822
:101D90006968084468602046FFF780FBBDE8704032
:101DA00000F070BF70BD0000B80000202E2E5C4611
:101DB00072656552544F535C706F727461626C65EA
:101DC0005C4D656D4D616E675C686561705F342E5A
:101DD000630000004572726F723A25732C25640D02
:101DE0000A00000006484FF47A710068B0FBF1F178
:101DF0004FF0E020491E416107210161704700005A
:101E00001400002010B5FEF76FFA104C10280CD308
:101E100000F1E02090F8F0032178884205D24FF4D9
:101E200040720BA115A0FEF785FA18480068A1685A
:101E300000F4E060884207D9BDE810404FF44472D6
:101E400003A10EA0FEF776BA10BD0000AC00002082
:101E50002E2E5C4672656552544F535C706F7274DF
:101E600061626C655C525644535C41524D5F434D18
:101E700034465C706F72742E630000004572726F9E
:101E8000723A25732C25640D0A0000000CED00E069
:101E900010B5074B002253F832401CB1521C082ADF
:101EA000F9D310BD43F8321003EBC201486010BDF6
:101EB0000801002070B515460E460446FFF7D6FE11
:101EC00094F944100020491C01D184F8440094F98D
:101ED0004510491C01D184F84500FFF703FFA06BB2
:101EE00028B92A46314604F1240000F0D1F82046F2
:101EF000BDE87040FFF7E8BC10B5040012D00E49F1
:101F0000096B29B140F2CF420CA111A0FEF712FAE1
:101F100000F09EF900212046FFF7E0F800F0B2FE45
:101F2000002807D10E494FF080500860BFF34F8F53
:101F3000BFF36F8F10BD0000540000202E2E5C46B2
:101F400072656552544F535C7461736B732E6300FA
:101F50004572726F723A25732C25640D0A000000D9
:101F600004ED00E070B50446FFF780FE234D04B990
:101F70002C68201DFFF736FE58B9E06A204A00EBB6
:101F8000800152F8211021B901218140286988433C
:101F90002861A06A18B104F11800FFF723FE686AEF
:101FA000401C68622868844207D1211D1548FFF74C
:101FB00051FE6868401C686007E0A868401EA86081
:101FC0002046FFF7C6F9FFF7DFFBFFF78BFE6869D6
:101FD000002812D0286884420FD1286B28B140F223
:101FE000654209A10DA0FEF7A5F910494FF08050F8
:101FF0000860BFF34F8FBFF36F8F70BD5400002098
:1020000048010020040400202E2E5C4672656552B3
:10201000544F535C7461736B732E63004572726F1F
:10202000723A25732C25640D0A00000004ED00E0CF
:1020300001490120C86170475400002070B50D4669
:10204000040005D140F6063207A10CA0FEF772F994
:102050000E48016820461831FFF7E4FD2846BDE828
:1020600070400121FFF73AB82E2E5C46726565522A
:10207000544F535C7461736B732E63004572726FBF
:10208000723A25732C25640D0A00000054000020CC
:1020900070B514460E46050005D140F6313209A14F
:1020A0000DA0FEF747F91048016828461831FFF7E0
:1020B000D1FD0CB14FF0FF3621463046BDE87040EF
:1020C000FFF70CB82E2E5C4672656552544F535C78
:1020D0007461736B732E63004572726F723A25736D
:1020E0002C25640D0A0000005400002070B5040087
:1020F00039D01D4DE06A2968C96A884233D2A06987
:10210000002804DB2868C06AC0F12000A061E06AF2
:10211000164E00EB8000616906EB800081421FD102
:10212000201DFFF75FFD012150B9E06A00EB80023E
:1021300056F8222022B92A6901FA00F082432A6166
:102140002868C06AE0622A6981401143296100EB76
:10215000800006EB8000211DBDE87040FFF77ABDCE
:102160002868C06AE06270BD540000204801002069
:1021700010B5040005D140F6C13205A109A0FEF753
:10218000D9F80C48016A2160C068606010BD000089
:102190002E2E5C4672656552544F535C7461736BAE
:1021A000732E63004572726F723A25732C25640D8D
:1021B0000A000000540000201CB518480024CDE996
:1021C00000402346822216A1174800F001FC012896
:1021D00003D100F003FE01280AD0401C1DD102B03B
:1021E00040F28472BDE8104010A115A0FEF7A2B81D
:1021F000502080F31188BFF34F8FBFF36F8F0748D4
:102200004FF0FF312C38816201214161C460FEF73B
:10221000CFFABDE81C4000F071B81CBD8000002062
:1022200049444C4500000000B51300082E2E5C46C2
:1022300072656552544F535C7461736B732E630007
:102240004572726F723A25732C25640D0A000000E6
:102250000248016B491C01637047000054000020D4
:1022600070B51A4C206B10B10120E06170BD0020E8
:10227000E061174908684968A063626B904204D91D
:102280002168821A8B6D1A448A6560632069114E39
:10229000B0FA80F0C0F11F0000EB800556F8250071
:1022A00028B940F6F6220CA110A0FEF743F806EB81
:1022B000850000F10802416849684160914201D1FE
:1022C00049684160C868206070BD0000540000206B
:1022D00030000020480100202E2E5C4672656552B9
:1022E000544F535C7461736B732E63004572726F4D
:1022F000723A25732C25640D0A0000001CB5304C81
:1023000020683049884205D140F259122EA139A0E7
:10231000FEF710F820682B49491E884205D14FF47A
:10232000AD7229A133A0FEF705F8364C2078019054
:10233000FF20207020788DF800009DF800009DF8A7
:10234000001000F0F000884205D040F273121EA188
:1023500028A0FDF7EFFF9DF800002B4A00F0500089
:1023600010700720906007E09068401E90609DF814
:10237000000040008DF800009DF800000006F3D436
:10238000107A000200F4E0609060019820700C4820
:102390002030016841F470010160016841F0704132
:1023A0000160FFF71FFD00205060FDF765FF174833
:1023B000016841F040410160FDF74EFF00201CBD67
:1023C00000ED00E071C20F412E2E5C467265655231
:1023D000544F535C706F727461626C655C5256440A
:1023E000535C41524D5F434D34465C706F72742EA6
:1023F000630000004572726F723A25732C25640DDC
:102400000A00000000E400E0AC00002034EF00E02F
:1024100010B5502080F31188BFF34F8FBFF36F8F3B
:1024200000F016FB18B104494FF0805008600020FE
:1024300080F3118810BD000004ED00E02DE9F041AB
:1024400017460E46050005D14FF4C47210A115A021
:10245000FDF770FFBEB105FB06F05430FFF770FAD0
:1024600004000ED004F154007EB12060C4E90F5680
:102470002046012100F0E0F884F850700021204649
:10248000A164BDE8F0810020E7E72460EEE70000EA
:102490002E2E5C4672656552544F535C717565759E
:1024A000652E63004572726F723A25732C25640D98
:1024B0000A0000002DE9FF4F83B09B468A460400C6
:1024C0004FF0000605D140F2DC4251A155A0FDF7C6
:1024D00031FFBAF1000F07D1206C28B140F2DD4284
:1024E0004BA150A0FDF726FF00F09EFA38B90598E1
:1024F00028B14FF49C6246A14AA0FDF71BFF4FF0A4
:1025000000094FF08057DFF82C81FFF7AFFBA56B78
:1025100045B351462046E668FEF7D2FEBBF1000FF8
:1025200013D0E660606A50B104F1240000F05EFB55
:1025300028B1C8F80070BFF34F8FBFF36F8FFFF75C
:10254000D1FB012007B0BDE8F08F6D1EA5632068A8
:1025500010B9FFF77FFA606020690028EFD004F11E
:102560001000E3E7059808B11EB106E0FFF7BAFBDB
:1025700027E06846FFF7FCFD0126FFF7B3FBFFF7F6
:1025800067FEFFF773FB94F94400401C01D184F807
:10259000449094F94500401C01D184F84590FFF720
:1025A000A1FB05A9684600F0CFF9002820460AD013
:1025B000FFF78AF900F066FB2046FEF7B1FF00281E
:1025C000A3D00020BEE7FEF7ABFFD8B1206830B93A
:1025D000FFF74CFB6068FFF789FDFFF783FB04F111
:1025E00024000599FFF72AFD2046FFF76DF900F05A
:1025F00049FB002889D1C8F80070BFF34F8FBFF3A3
:102600006F8F82E72046FFF75FF900F03BFB7CE726
:102610002E2E5C4672656552544F535C717565751C
:10262000652E63004572726F723A25732C25640D16
:102630000A00000004ED00E070B50D46040005D16D
:1026400040F21B121CA121A0FDF774FEFFF70EFB48
:10265000D4E90F20216802FB001161600021A16311
:102660002168A1600A46D4E90F01401E00FB012148
:10267000E16021464FF0FF3001F8440F487004F14B
:1026800010004DB1FFF7C0FA04F12400FFF7BCFAC7
:10269000FFF728FB012070BD21690029F8D000F068
:1026A000A5FA0028F4D00D494FF080500860BFF320
:1026B0004F8FBFF36F8FEBE72E2E5C46726565522E
:1026C000544F535C71756575652E63004572726F6A
:1026D000723A25732C25640D0A00000004ED00E019
:1026E0002DE9FF4F83B099468B4604004FF000065A
:1026F00005D140F2D92252A156A0FDF71BFEBBF135
:10270000000F07D1206C28B140F2DA224CA151A071
:10271000FDF710FEB9F1020F08D1E06B012805D0DA
:1027200040F2DB2246A14BA0FDF704FE00F07CF94D
:1027300038B9059828B140F2DE2241A145A0FDF745
:10274000F9FD4FF0000A4FF08057DFF81881FFF7CE
:102750008DFAA06BE16B884206D3B9F1020F03D06A
:10276000059800B316B325E04A4659462046FEF7C1
:10277000BAFDA16C21B149462046FEF7DFFE05E017
:10278000616A19B104F1240000F030FA28B1C8F8E8
:102790000070BFF34F8FBFF36F8FFFF7A3FA0120D5
:1027A00007B0BDE8F08FFFF79DFA21E06846FFF71C
:1027B000DFFC0126FFF796FAFFF74AFDFFF756FA0E
:1027C00094F94400401C01D184F844A094F94500D8
:1027D000401C01D184F845A0FFF784FA05A968469A
:1027E00000F0B2F830B12046FFF76EF800F04AFA78
:1027F0000020D5E7FFF73AFAA06BE16B884201D1E0
:10280000012500E00025FFF76DFA95B104F11000F5
:102810000599FFF713FC2046FFF756F800F032FA4F
:10282000002894D1C8F80070BFF34F8FBFF36F8FAB
:102830008DE72046FFF748F800F024FA87E700000C
:102840002E2E5C4672656552544F535C71756575EA
:10285000652E63004572726F723A25732C25640DE4
:102860000A00000004ED00E02DE9F0479846154607
:102870008946040005D140F29F322AA12EA0FDF71F
:1028800059FDB9F1000F07D1206C28B14FF46872DF
:1028900024A129A0FDF74EFDB8F1020F08D1E06B8D
:1028A000012805D040F2A1321EA123A0FDF742FD70
:1028B000FFF7A8FA5020EFF3118780F31188BFF3D8
:1028C0004F8FBFF36F8FA06BE16B884207D3B8F1D6
:1028D000020F04D0002087F31188BDE8F08794F937
:1028E0004560424649462046FEF7FDFC701C04D078
:1028F000761C84F845600120EDE7A06C012620B12C
:1029000041462046FEF71AFE06E0606A0028F2D033
:1029100004F1240000F06AF90028ECD0002DEAD080
:102920002E60E8E72E2E5C4672656552544F535C6C
:1029300071756575652E63004572726F723A257305
:102940002C25640D0A00000070B50D46040005D169
:1029500040F6CB3214A119A0FDF7ECFC2DB940F6DE
:10296000CC3211A115A0FDF7E5FCFFF77FF9174A5E
:10297000D06829684B1C0FD02368126A934202D09A
:10298000626882420AD96268801A884206D2081AAE
:1029900028602046FFF7ECFB002400E00124FFF74D
:1029A000A1F9204670BD00002E2E5C46726565526E
:1029B000544F535C7461736B732E63004572726F76
:1029C000723A25732C25640D0A0000005400002083
:1029D0002DE9FF5F8346DDE90E87994616468A4654
:1029E0009000FEF7ADFF05001AD06420FEF7A8FFA7
:1029F000040012D025630021CDE90241CDE9008712
:102A00004B46324651465846FEF7E8FC2046FEF754
:102A10009DFB012004B0BDE8F09F2846FFF794F924
:102A20004FF0FF30F6E700000548416919B1006B2F
:102A300018B1002070470120704702207047000045
:102A4000540000200148C068704700005400002076
:102A50002DE9F0412D4F0026386B40B1B869401C7C
:102A6000B861F86900B101263046BDE8F081FD6823
:102A70006D1CFD6011D1F86B006828B140F6D912C9
:102A800023A128A0FDF756FCF86B396CF963386474
:102A9000386A401C3862FEF777FEB86ADFF8948027
:102AA000854209D3F86B006880B1F86BC068C468D0
:102AB000606885420DD2B8623868C06A00EB800158
:102AC00058F821000128CCD90126CAE74FF0FF3081
:102AD000F1E7201DFFF786F8A06A18B104F118008D
:102AE000FFF780F8E06A01213A69814011433961BA
:102AF00000EB800108EB8100211DFFF7ABF8E06AD5
:102B00003968C96A8842CDD30126CBE7540000203A
:102B10002E2E5C4672656552544F535C7461736B24
:102B2000732E63004572726F723A25732C25640D03
:102B30000A0000004801002070B504004FF00006B4
:102B40003CD01F4D2868844205D040F6C7621DA1C5
:102B500021A0FDF7EFFB606D28B940F6C96219A10D
:102B60001DA0FDF7E7FB606D401E6065226DE16A08
:102B7000914223D010BB201DFFF734F81A490122DF
:102B800050B9E06A00EB800351F8233023B92B6978
:102B900002FA00F083432B61206DE062C0F1200057
:102BA000A061E06A2B6982401A432A6100EB800031
:102BB00001EB8000211DFFF74DF80126304670BD66
:102BC000540000202E2E5C4672656552544F535CB3
:102BD0007461736B732E63004572726F723A257362
:102BE0002C25640D0A000000480100202DE9F04169
:102BF000C068C4682CB940F6613216A11AA0FDF76E
:102C000099FB04F118000746FEF7ECFF1A4D286BFC
:102C1000012660B139461948FFF71CF8E06A2968B7
:102C2000C96A884213D90120EE61BDE8F081201DF8
:102C3000FEF7D8FFE06A2A6906FA00F1114329611C
:102C40000F4900EB800001EB8000211DE4E700202C
:102C5000EBE700002E2E5C4672656552544F535CC4
:102C60007461736B732E63004572726F723A2573D1
:102C70002C25640D0A00000054000020F003002001
:102C8000480100202DE9F0472B4D00242746286BF2
:102C900028B94FF4FD6229A12DA0FDF74BFBFEF7EB
:102CA000E5FF286B401E2863286BE8BBA8682C4909
:102CB0000126C8B3A1F52A798846D8F80010E9B1F1
:102CC000D8F80C00C46804F11800FEF78BFF201D33
:102CD000FEF788FFE06A2A6906FA00F111432961CC
:102CE00000EB800109EB8100211DFEF7B3FFE06AD4
:102CF0002968C96A8842E0D3EE61DEE70CB1FEF7CD
:102D000043FDAC693CB1FFF7A3FE00B1EE61641E68
:102D1000F9D10020A861E86930B1124901273807CC
:102D20000860BFF34F8F00E001E0BFF36F8FFEF745
:102D3000D9FF3846BDE8F087540000202E2E5C46AF
:102D400072656552544F535C7461736B732E6300EC
:102D50004572726F723A25732C25640D0A000000CB
:102D6000F003002004ED00E02DE9F0470746994606
:102D700016460D462C20DDF820A0FEF7E1FD0400EC
:102D800014D0B8464F46D1462DB94FF4C67209A1AA
:102D90000EA0FDF7CFFAFEF741FA04F11801C4F8CE
:102DA000008081E8E002201DFEF739FF2046BDE8E3
:102DB000F08700002E2E5C4672656552544F535CBE
:102DC00074696D6572732E63000000004572726F46
:102DD000723A25732C25640D0A0000001CB50024EE
:102DE000FEF71CFA0C48006868B10B491F20091D4A
:102DF000CDE9000100234FF4827208A10948FFF7D2
:102E0000E7FD040005D140F2331207A10CA0FDF745
:102E100091FA20461CBD000098000020546D7220DD
:102E200053766300A11800082E2E5C467265655229
:102E3000544F535C74696D6572732E63000000001B
:102E40004572726F723A25732C25640D0A000000DA
:102E50002DE9FF47DDF830A0994690460D46060063
:102E60004FF0000705D14FF4D37212A117A0FDF760
:102E700061FA1A4C206880B1CDE900580296062DFF
:102E800011DAFFF7D1FD02284FF0000309D000222C
:102E900069462068FFF724FC074604B03846BDE8C1
:102EA000F0875246F4E700234A466946FFF7DCFC08
:102EB000F2E700002E2E5C4672656552544F535C5B
:102EC00074696D6572732E63000000004572726F45
:102ED000723A25732C25640D0A000000980000202A
:102EE0004FF04070E1EE100A704700000C2F000810
:102EF00000000020D4000000C4010008E02F0008FA
:102F0000D4000020E4590000E001000800000000A7
:102F100000000000000000000000000000000000B1
:102F2000007A030A00000000000000000102030410
:102F30000607080901000000000000000000000072
:102F40000000000000000000000000000000000081
:102F5000000000000102030401020304060708093F
:102F60000000000000000000000000000000000061
:102F70000000000000000000000000000000000051
:102F80000000000000000000000000000000000041
:102F90000000000000000000000000000000000031
:102FA0000000000000000000000000000000000021
:102FB000000000000000000000000000AAAAAAAA69
:102FC0000000000000000000000000000000000001
:102FD00000000000000000000000000000000000F1
:040000050800018965
:00000001FF
